{
  "_format": "hh-sol-artifact-1",
  "contractName": "ERC404Factory",
  "sourceName": "contracts/ERC404Factory.sol",
  "abi": [
    {
      "anonymous": false,
      "inputs": [
        {
          "indexed": true,
          "internalType": "address",
          "name": "ERC404Address",
          "type": "address"
        },
        {
          "indexed": true,
          "internalType": "address",
          "name": "deployer",
          "type": "address"
        },
        {
          "indexed": true,
          "internalType": "uint256",
          "name": "id",
          "type": "uint256"
        }
      ],
      "name": "deployedAddress",
      "type": "event"
    },
    {
      "inputs": [],
      "name": "Id",
      "outputs": [
        {
          "internalType": "uint256",
          "name": "",
          "type": "uint256"
        }
      ],
      "stateMutability": "view",
      "type": "function"
    },
    {
      "inputs": [
        {
          "internalType": "uint256",
          "name": "",
          "type": "uint256"
        }
      ],
      "name": "TokenFactory",
      "outputs": [
        {
          "internalType": "address",
          "name": "",
          "type": "address"
        }
      ],
      "stateMutability": "view",
      "type": "function"
    },
    {
      "inputs": [
        {
          "internalType": "address",
          "name": "_owner",
          "type": "address"
        }
      ],
      "name": "deployERC404",
      "outputs": [
        {
          "internalType": "address",
          "name": "",
          "type": "address"
        }
      ],
      "stateMutability": "nonpayable",
      "type": "function"
    }
  ],
  "bytecode": "0x608060405234801561001057600080fd5b506139e8806100206000396000f3fe60806040523480156200001157600080fd5b5060043610620000465760003560e01c806339a090c9146200004b5780635f171aeb146200006d578063d255509314620000a3575b600080fd5b62000055620000d9565b6040516200006491906200024a565b60405180910390f35b6200008b6004803603810190620000859190620002d1565b620000df565b6040516200009a919062000314565b60405180910390f35b620000c16004803603810190620000bb919062000362565b620001ee565b604051620000d0919062000314565b60405180910390f35b60005481565b6000806000808154620000f290620003c3565b91905081905590506000836040516200010b9062000221565b62000117919062000314565b604051809103906000f08015801562000134573d6000803e3d6000fd5b509050806001600084815260200190815260200160002060006101000a81548173ffffffffffffffffffffffffffffffffffffffff021916908373ffffffffffffffffffffffffffffffffffffffff160217905550813373ffffffffffffffffffffffffffffffffffffffff168273ffffffffffffffffffffffffffffffffffffffff167fe5da98f36af5eb35b417d9b79d6f32b06f32d240ae327c903b06cd94ea9217c160405160405180910390a48092505050919050565b60016020528060005260406000206000915054906101000a900473ffffffffffffffffffffffffffffffffffffffff1681565b6135a2806200041183390190565b6000819050919050565b62000244816200022f565b82525050565b600060208201905062000261600083018462000239565b92915050565b600080fd5b600073ffffffffffffffffffffffffffffffffffffffff82169050919050565b600062000299826200026c565b9050919050565b620002ab816200028c565b8114620002b757600080fd5b50565b600081359050620002cb81620002a0565b92915050565b600060208284031215620002ea57620002e962000267565b5b6000620002fa84828501620002ba565b91505092915050565b6200030e816200028c565b82525050565b60006020820190506200032b600083018462000303565b92915050565b6200033c816200022f565b81146200034857600080fd5b50565b6000813590506200035c8162000331565b92915050565b6000602082840312156200037b576200037a62000267565b5b60006200038b848285016200034b565b91505092915050565b7f4e487b7100000000000000000000000000000000000000000000000000000000600052601160045260246000fd5b6000620003d0826200022f565b91507fffffffffffffffffffffffffffffffffffffffffffffffffffffffffffffffff820362000405576200040462000394565b5b60018201905091905056fe60c06040523480156200001157600080fd5b50604051620035a2380380620035a28339818101604052810190620000379190620002c8565b6040518060400160405280600781526020017f50616e646f7261000000000000000000000000000000000000000000000000008152506040518060400160405280600781526020017f50414e444f52410000000000000000000000000000000000000000000000000081525060126127108480600073ffffffffffffffffffffffffffffffffffffffff168173ffffffffffffffffffffffffffffffffffffffff160362000111576040517f49e27cff00000000000000000000000000000000000000000000000000000000815260040160405180910390fd5b806000806101000a81548173ffffffffffffffffffffffffffffffffffffffff021916908373ffffffffffffffffffffffffffffffffffffffff1602179055508073ffffffffffffffffffffffffffffffffffffffff16600073ffffffffffffffffffffffffffffffffffffffff167f8be0079c531659141344cd1fd0a4f28419497f9722a3daafe3b4186f6b6457e060405160405180910390a3508460019081620001be919062000574565b508360029081620001d0919062000574565b508260ff1660808160ff1681525050608051600a620001f09190620007eb565b82620001fd91906200083c565b60a08181525050505050505069021e19e0c9bab2400000600460008373ffffffffffffffffffffffffffffffffffffffff1673ffffffffffffffffffffffffffffffffffffffff168152602001908152602001600020819055505062000887565b600080fd5b600073ffffffffffffffffffffffffffffffffffffffff82169050919050565b6000620002908262000263565b9050919050565b620002a28162000283565b8114620002ae57600080fd5b50565b600081519050620002c28162000297565b92915050565b600060208284031215620002e157620002e06200025e565b5b6000620002f184828501620002b1565b91505092915050565b600081519050919050565b7f4e487b7100000000000000000000000000000000000000000000000000000000600052604160045260246000fd5b7f4e487b7100000000000000000000000000000000000000000000000000000000600052602260045260246000fd5b600060028204905060018216806200037c57607f821691505b60208210810362000392576200039162000334565b5b50919050565b60008190508160005260206000209050919050565b60006020601f8301049050919050565b600082821b905092915050565b600060088302620003fc7fffffffffffffffffffffffffffffffffffffffffffffffffffffffffffffffff82620003bd565b620004088683620003bd565b95508019841693508086168417925050509392505050565b6000819050919050565b6000819050919050565b6000620004556200044f620004498462000420565b6200042a565b62000420565b9050919050565b6000819050919050565b620004718362000434565b6200048962000480826200045c565b848454620003ca565b825550505050565b600090565b620004a062000491565b620004ad81848462000466565b505050565b5b81811015620004d557620004c960008262000496565b600181019050620004b3565b5050565b601f8211156200052457620004ee8162000398565b620004f984620003ad565b8101602085101562000509578190505b620005216200051885620003ad565b830182620004b2565b50505b505050565b600082821c905092915050565b6000620005496000198460080262000529565b1980831691505092915050565b600062000564838362000536565b9150826002028217905092915050565b6200057f82620002fa565b67ffffffffffffffff8111156200059b576200059a62000305565b5b620005a7825462000363565b620005b4828285620004d9565b600060209050601f831160018114620005ec5760008415620005d7578287015190505b620005e3858262000556565b86555062000653565b601f198416620005fc8662000398565b60005b828110156200062657848901518255600182019150602085019450602081019050620005ff565b8683101562000646578489015162000642601f89168262000536565b8355505b6001600288020188555050505b505050505050565b7f4e487b7100000000000000000000000000000000000000000000000000000000600052601160045260246000fd5b60008160011c9050919050565b6000808291508390505b6001851115620006e957808604811115620006c157620006c06200065b565b5b6001851615620006d15780820291505b8081029050620006e1856200068a565b9450620006a1565b94509492505050565b600082620007045760019050620007d7565b81620007145760009050620007d7565b81600181146200072d576002811462000738576200076e565b6001915050620007d7565b60ff8411156200074d576200074c6200065b565b5b8360020a9150848211156200076757620007666200065b565b5b50620007d7565b5060208310610133831016604e8410600b8410161715620007a85782820a905083811115620007a257620007a16200065b565b5b620007d7565b620007b7848484600162000697565b92509050818404811115620007d157620007d06200065b565b5b81810290505b9392505050565b600060ff82169050919050565b6000620007f88262000420565b91506200080583620007de565b9250620008347fffffffffffffffffffffffffffffffffffffffffffffffffffffffffffffffff8484620006f2565b905092915050565b6000620008498262000420565b9150620008568362000420565b9250828202620008668162000420565b9150828204841483151762000880576200087f6200065b565b5b5092915050565b60805160a051612cee620008b460003960006108300152600081816111ae0152611abd0152612cee6000f3fe608060405234801561001057600080fd5b506004361061014d5760003560e01c806370a08231116100c3578063b88d4fde1161007c578063b88d4fde146103a0578063d547cfb7146103bc578063dd62ed3e146103da578063e985e9c51461040a578063f28ca1dd1461043a578063f2fde38b146104585761014d565b806370a08231146102b85780638da5cb5b146102e857806395d89b41146103065780639b19251a14610324578063a22cb46514610354578063a9059cbb146103705761014d565b80632b968958116101155780632b9689581461020a578063313ce5671461021457806342842e0e146102325780634f02c4201461024e57806353d6fd591461026c5780636352211e146102885761014d565b806306fdde0314610152578063081812fc14610170578063095ea7b3146101a057806318160ddd146101d057806323b872dd146101ee575b600080fd5b61015a610474565b60405161016791906123da565b60405180910390f35b61018a6004803603810190610185919061243c565b610502565b60405161019791906124aa565b60405180910390f35b6101ba60048036038101906101b591906124f1565b610535565b6040516101c7919061254c565b60405180910390f35b6101d861082e565b6040516101e59190612576565b60405180910390f35b61020860048036038101906102039190612591565b610852565b005b610212611089565b005b61021c6111ac565b6040516102299190612600565b60405180910390f35b61024c60048036038101906102479190612591565b6111d0565b005b610256611303565b6040516102639190612576565b60405180910390f35b61028660048036038101906102819190612647565b611309565b005b6102a2600480360381019061029d919061243c565b6113e9565b6040516102af91906124aa565b60405180910390f35b6102d260048036038101906102cd9190612687565b61148c565b6040516102df9190612576565b60405180910390f35b6102f06114a4565b6040516102fd91906124aa565b60405180910390f35b61030e6114c8565b60405161031b91906123da565b60405180910390f35b61033e60048036038101906103399190612687565b611556565b60405161034b919061254c565b60405180910390f35b61036e60048036038101906103699190612647565b611576565b005b61038a600480360381019061038591906124f1565b611673565b604051610397919061254c565b60405180910390f35b6103ba60048036038101906103b59190612719565b611688565b005b6103c46117c1565b6040516103d191906123da565b60405180910390f35b6103f460048036038101906103ef91906127a1565b61184f565b6040516104019190612576565b60405180910390f35b610424600480360381019061041f91906127a1565b611874565b604051610431919061254c565b60405180910390f35b6104426118a3565b60405161044f91906123da565b60405180910390f35b610472600480360381019061046d9190612687565b611931565b005b6001805461048190612810565b80601f01602080910402602001604051908101604052809291908181526020018280546104ad90612810565b80156104fa5780601f106104cf576101008083540402835291602001916104fa565b820191906000526020600020905b8154815290600101906020018083116104dd57829003601f168201915b505050505081565b60066020528060005260406000206000915054906101000a900473ffffffffffffffffffffffffffffffffffffffff1681565b600060035482111580156105495750600082115b1561073d5760006008600084815260200190815260200160002060009054906101000a900473ffffffffffffffffffffffffffffffffffffffff1690508073ffffffffffffffffffffffffffffffffffffffff163373ffffffffffffffffffffffffffffffffffffffff16141580156106495750600760008273ffffffffffffffffffffffffffffffffffffffff1673ffffffffffffffffffffffffffffffffffffffff16815260200190815260200160002060003373ffffffffffffffffffffffffffffffffffffffff1673ffffffffffffffffffffffffffffffffffffffff16815260200190815260200160002060009054906101000a900460ff16155b15610680576040517f82b4290000000000000000000000000000000000000000000000000000000000815260040160405180910390fd5b836006600085815260200190815260200160002060006101000a81548173ffffffffffffffffffffffffffffffffffffffff021916908373ffffffffffffffffffffffffffffffffffffffff1602179055508373ffffffffffffffffffffffffffffffffffffffff168173ffffffffffffffffffffffffffffffffffffffff167f8c5be1e5ebec7d5bd14f71427d1e84f3dd0314c0f7b2291e5b200ac8c7c3b9258560405161072f9190612576565b60405180910390a350610824565b81600560003373ffffffffffffffffffffffffffffffffffffffff1673ffffffffffffffffffffffffffffffffffffffff16815260200190815260200160002060008573ffffffffffffffffffffffffffffffffffffffff1673ffffffffffffffffffffffffffffffffffffffff168152602001908152602001600020819055508273ffffffffffffffffffffffffffffffffffffffff163373ffffffffffffffffffffffffffffffffffffffff167f8c5be1e5ebec7d5bd14f71427d1e84f3dd0314c0f7b2291e5b200ac8c7c3b9258460405161081b9190612576565b60405180910390a35b6001905092915050565b7f000000000000000000000000000000000000000000000000000000000000000081565b6003548111610f41576008600082815260200190815260200160002060009054906101000a900473ffffffffffffffffffffffffffffffffffffffff1673ffffffffffffffffffffffffffffffffffffffff168373ffffffffffffffffffffffffffffffffffffffff16146108f3576040517fddb5de5e00000000000000000000000000000000000000000000000000000000815260040160405180910390fd5b600073ffffffffffffffffffffffffffffffffffffffff168273ffffffffffffffffffffffffffffffffffffffff1603610959576040517f9c8d2cd200000000000000000000000000000000000000000000000000000000815260040160405180910390fd5b8273ffffffffffffffffffffffffffffffffffffffff163373ffffffffffffffffffffffffffffffffffffffff1614158015610a1c5750600760008473ffffffffffffffffffffffffffffffffffffffff1673ffffffffffffffffffffffffffffffffffffffff16815260200190815260200160002060003373ffffffffffffffffffffffffffffffffffffffff1673ffffffffffffffffffffffffffffffffffffffff16815260200190815260200160002060009054906101000a900460ff16155b8015610a8757506006600082815260200190815260200160002060009054906101000a900473ffffffffffffffffffffffffffffffffffffffff1673ffffffffffffffffffffffffffffffffffffffff163373ffffffffffffffffffffffffffffffffffffffff1614155b15610abe576040517f82b4290000000000000000000000000000000000000000000000000000000000815260040160405180910390fd5b610ac6611ab9565b600460008573ffffffffffffffffffffffffffffffffffffffff1673ffffffffffffffffffffffffffffffffffffffff1681526020019081526020016000206000828254610b149190612870565b92505081905550610b23611ab9565b600460008473ffffffffffffffffffffffffffffffffffffffff1673ffffffffffffffffffffffffffffffffffffffff16815260200190815260200160002060008282540192505081905550816008600083815260200190815260200160002060006101000a81548173ffffffffffffffffffffffffffffffffffffffff021916908373ffffffffffffffffffffffffffffffffffffffff1602179055506006600082815260200190815260200160002060006101000a81549073ffffffffffffffffffffffffffffffffffffffff02191690556000600960008573ffffffffffffffffffffffffffffffffffffffff1673ffffffffffffffffffffffffffffffffffffffff1681526020019081526020016000206001600960008773ffffffffffffffffffffffffffffffffffffffff1673ffffffffffffffffffffffffffffffffffffffff16815260200190815260200160002080549050610c879190612870565b81548110610c9857610c976128a4565b5b9060005260206000200154905080600960008673ffffffffffffffffffffffffffffffffffffffff1673ffffffffffffffffffffffffffffffffffffffff168152602001908152602001600020600a60008581526020019081526020016000205481548110610d0a57610d096128a4565b5b9060005260206000200181905550600960008573ffffffffffffffffffffffffffffffffffffffff1673ffffffffffffffffffffffffffffffffffffffff168152602001908152602001600020805480610d6757610d666128d3565b5b60019003818190600052602060002001600090559055600a600083815260200190815260200160002054600a600083815260200190815260200160002081905550600960008473ffffffffffffffffffffffffffffffffffffffff1673ffffffffffffffffffffffffffffffffffffffff1681526020019081526020016000208290806001815401808255809150506001900390600052602060002001600090919091909150556001600960008573ffffffffffffffffffffffffffffffffffffffff1673ffffffffffffffffffffffffffffffffffffffff16815260200190815260200160002080549050610e5d9190612870565b600a600084815260200190815260200160002081905550818373ffffffffffffffffffffffffffffffffffffffff168573ffffffffffffffffffffffffffffffffffffffff167fddf252ad1be2c89b69c2b068fc378daa952ba7f163c4a11628f55a4df523b3ef60405160405180910390a48273ffffffffffffffffffffffffffffffffffffffff168473ffffffffffffffffffffffffffffffffffffffff167fe59fdd36d0d223c0c7d996db7ad796880f45e1936cb0bb7ac102e7082e031487610f26611ab9565b604051610f339190612576565b60405180910390a350611084565b6000600560008573ffffffffffffffffffffffffffffffffffffffff1673ffffffffffffffffffffffffffffffffffffffff16815260200190815260200160002060003373ffffffffffffffffffffffffffffffffffffffff1673ffffffffffffffffffffffffffffffffffffffff1681526020019081526020016000205490507fffffffffffffffffffffffffffffffffffffffffffffffffffffffffffffffff8114611076578181610ff59190612870565b600560008673ffffffffffffffffffffffffffffffffffffffff1673ffffffffffffffffffffffffffffffffffffffff16815260200190815260200160002060003373ffffffffffffffffffffffffffffffffffffffff1673ffffffffffffffffffffffffffffffffffffffff168152602001908152602001600020819055505b611081848484611aed565b50505b505050565b60008054906101000a900473ffffffffffffffffffffffffffffffffffffffff1673ffffffffffffffffffffffffffffffffffffffff163373ffffffffffffffffffffffffffffffffffffffff161461110e576040517f82b4290000000000000000000000000000000000000000000000000000000000815260040160405180910390fd5b60008060006101000a81548173ffffffffffffffffffffffffffffffffffffffff021916908373ffffffffffffffffffffffffffffffffffffffff160217905550600073ffffffffffffffffffffffffffffffffffffffff163373ffffffffffffffffffffffffffffffffffffffff167f8be0079c531659141344cd1fd0a4f28419497f9722a3daafe3b4186f6b6457e060405160405180910390a3565b7f000000000000000000000000000000000000000000000000000000000000000081565b6111db838383610852565b60008273ffffffffffffffffffffffffffffffffffffffff163b141580156112c7575063150b7a0260e01b7bffffffffffffffffffffffffffffffffffffffffffffffffffffffff19168273ffffffffffffffffffffffffffffffffffffffff1663150b7a023386856040518463ffffffff1660e01b815260040161126293929190612939565b6020604051808303816000875af1158015611281573d6000803e3d6000fd5b505050506040513d601f19601f820116820180604052508101906112a591906129db565b7bffffffffffffffffffffffffffffffffffffffffffffffffffffffff191614155b156112fe576040517f3da6393100000000000000000000000000000000000000000000000000000000815260040160405180910390fd5b505050565b60035481565b60008054906101000a900473ffffffffffffffffffffffffffffffffffffffff1673ffffffffffffffffffffffffffffffffffffffff163373ffffffffffffffffffffffffffffffffffffffff161461138e576040517f82b4290000000000000000000000000000000000000000000000000000000000815260040160405180910390fd5b80600b60008473ffffffffffffffffffffffffffffffffffffffff1673ffffffffffffffffffffffffffffffffffffffff16815260200190815260200160002060006101000a81548160ff0219169083151502179055505050565b60006008600083815260200190815260200160002060009054906101000a900473ffffffffffffffffffffffffffffffffffffffff169050600073ffffffffffffffffffffffffffffffffffffffff168173ffffffffffffffffffffffffffffffffffffffff1603611487576040517fc5723b5100000000000000000000000000000000000000000000000000000000815260040160405180910390fd5b919050565b60046020528060005260406000206000915090505481565b60008054906101000a900473ffffffffffffffffffffffffffffffffffffffff1681565b600280546114d590612810565b80601f016020809104026020016040519081016040528092919081815260200182805461150190612810565b801561154e5780601f106115235761010080835404028352916020019161154e565b820191906000526020600020905b81548152906001019060200180831161153157829003601f168201915b505050505081565b600b6020528060005260406000206000915054906101000a900460ff1681565b80600760003373ffffffffffffffffffffffffffffffffffffffff1673ffffffffffffffffffffffffffffffffffffffff16815260200190815260200160002060008473ffffffffffffffffffffffffffffffffffffffff1673ffffffffffffffffffffffffffffffffffffffff16815260200190815260200160002060006101000a81548160ff0219169083151502179055508173ffffffffffffffffffffffffffffffffffffffff163373ffffffffffffffffffffffffffffffffffffffff167f17307eab39ab6107e8899845ad3d59bd9653f200f220920489ca2b5937696c3183604051611667919061254c565b60405180910390a35050565b6000611680338484611aed565b905092915050565b611693858585610852565b60008473ffffffffffffffffffffffffffffffffffffffff163b14158015611783575063150b7a0260e01b7bffffffffffffffffffffffffffffffffffffffffffffffffffffffff19168473ffffffffffffffffffffffffffffffffffffffff1663150b7a0233888787876040518663ffffffff1660e01b815260040161171e959493929190612a44565b6020604051808303816000875af115801561173d573d6000803e3d6000fd5b505050506040513d601f19601f8201168201806040525081019061176191906129db565b7bffffffffffffffffffffffffffffffffffffffffffffffffffffffff191614155b156117ba576040517f3da6393100000000000000000000000000000000000000000000000000000000815260040160405180910390fd5b5050505050565b600d80546117ce90612810565b80601f01602080910402602001604051908101604052809291908181526020018280546117fa90612810565b80156118475780601f1061181c57610100808354040283529160200191611847565b820191906000526020600020905b81548152906001019060200180831161182a57829003601f168201915b505050505081565b6005602052816000526040600020602052806000526040600020600091509150505481565b60076020528160005260406000206020528060005260406000206000915091509054906101000a900460ff1681565b600c80546118b090612810565b80601f01602080910402602001604051908101604052809291908181526020018280546118dc90612810565b80156119295780601f106118fe57610100808354040283529160200191611929565b820191906000526020600020905b81548152906001019060200180831161190c57829003601f168201915b505050505081565b60008054906101000a900473ffffffffffffffffffffffffffffffffffffffff1673ffffffffffffffffffffffffffffffffffffffff163373ffffffffffffffffffffffffffffffffffffffff16146119b6576040517f82b4290000000000000000000000000000000000000000000000000000000000815260040160405180910390fd5b600073ffffffffffffffffffffffffffffffffffffffff168173ffffffffffffffffffffffffffffffffffffffff1603611a1c576040517f49e27cff00000000000000000000000000000000000000000000000000000000815260040160405180910390fd5b806000806101000a81548173ffffffffffffffffffffffffffffffffffffffff021916908373ffffffffffffffffffffffffffffffffffffffff1602179055508073ffffffffffffffffffffffffffffffffffffffff163373ffffffffffffffffffffffffffffffffffffffff167f8be0079c531659141344cd1fd0a4f28419497f9722a3daafe3b4186f6b6457e060405160405180910390a350565b60007f0000000000000000000000000000000000000000000000000000000000000000600a611ae89190612bc5565b905090565b600080611af8611ab9565b90506000600460008773ffffffffffffffffffffffffffffffffffffffff1673ffffffffffffffffffffffffffffffffffffffff1681526020019081526020016000205490506000600460008773ffffffffffffffffffffffffffffffffffffffff1673ffffffffffffffffffffffffffffffffffffffff16815260200190815260200160002054905084600460008973ffffffffffffffffffffffffffffffffffffffff1673ffffffffffffffffffffffffffffffffffffffff1681526020019081526020016000206000828254611bd19190612870565b9250508190555084600460008873ffffffffffffffffffffffffffffffffffffffff1673ffffffffffffffffffffffffffffffffffffffff16815260200190815260200160002060008282540192505081905550600b60008873ffffffffffffffffffffffffffffffffffffffff1673ffffffffffffffffffffffffffffffffffffffff16815260200190815260200160002060009054906101000a900460ff16611d0557600083600460008a73ffffffffffffffffffffffffffffffffffffffff1673ffffffffffffffffffffffffffffffffffffffff16815260200190815260200160002054611cc39190612c3f565b8484611ccf9190612c3f565b611cd99190612870565b905060005b81811015611d0257611cef89611e58565b8080611cfa90612c70565b915050611cde565b50505b600b60008773ffffffffffffffffffffffffffffffffffffffff1673ffffffffffffffffffffffffffffffffffffffff16815260200190815260200160002060009054906101000a900460ff16611de55760008382611d649190612c3f565b84600460008a73ffffffffffffffffffffffffffffffffffffffff1673ffffffffffffffffffffffffffffffffffffffff16815260200190815260200160002054611daf9190612c3f565b611db99190612870565b905060005b81811015611de257611dcf886120b4565b8080611dda90612c70565b915050611dbe565b50505b8573ffffffffffffffffffffffffffffffffffffffff168773ffffffffffffffffffffffffffffffffffffffff167fe59fdd36d0d223c0c7d996db7ad796880f45e1936cb0bb7ac102e7082e03148787604051611e429190612576565b60405180910390a3600193505050509392505050565b600073ffffffffffffffffffffffffffffffffffffffff168173ffffffffffffffffffffffffffffffffffffffff1603611ebe576040517fddb5de5e00000000000000000000000000000000000000000000000000000000815260040160405180910390fd5b6000600960008373ffffffffffffffffffffffffffffffffffffffff1673ffffffffffffffffffffffffffffffffffffffff1681526020019081526020016000206001600960008573ffffffffffffffffffffffffffffffffffffffff1673ffffffffffffffffffffffffffffffffffffffff16815260200190815260200160002080549050611f4e9190612870565b81548110611f5f57611f5e6128a4565b5b90600052602060002001549050600960008373ffffffffffffffffffffffffffffffffffffffff1673ffffffffffffffffffffffffffffffffffffffff168152602001908152602001600020805480611fbb57611fba6128d3565b5b60019003818190600052602060002001600090559055600a6000828152602001908152602001600020600090556008600082815260200190815260200160002060006101000a81549073ffffffffffffffffffffffffffffffffffffffff02191690556006600082815260200190815260200160002060006101000a81549073ffffffffffffffffffffffffffffffffffffffff021916905580600073ffffffffffffffffffffffffffffffffffffffff168373ffffffffffffffffffffffffffffffffffffffff167fddf252ad1be2c89b69c2b068fc378daa952ba7f163c4a11628f55a4df523b3ef60405160405180910390a45050565b600073ffffffffffffffffffffffffffffffffffffffff168173ffffffffffffffffffffffffffffffffffffffff160361211a576040517f9c8d2cd200000000000000000000000000000000000000000000000000000000815260040160405180910390fd5b60036000815480929190600101919050555060006003549050600073ffffffffffffffffffffffffffffffffffffffff166008600083815260200190815260200160002060009054906101000a900473ffffffffffffffffffffffffffffffffffffffff1673ffffffffffffffffffffffffffffffffffffffff16146121cc576040517f23369fa600000000000000000000000000000000000000000000000000000000815260040160405180910390fd5b816008600083815260200190815260200160002060006101000a81548173ffffffffffffffffffffffffffffffffffffffff021916908373ffffffffffffffffffffffffffffffffffffffff160217905550600960008373ffffffffffffffffffffffffffffffffffffffff1673ffffffffffffffffffffffffffffffffffffffff1681526020019081526020016000208190806001815401808255809150506001900390600052602060002001600090919091909150556001600960008473ffffffffffffffffffffffffffffffffffffffff1673ffffffffffffffffffffffffffffffffffffffff168152602001908152602001600020805490506122d39190612870565b600a600083815260200190815260200160002081905550808273ffffffffffffffffffffffffffffffffffffffff16600073ffffffffffffffffffffffffffffffffffffffff167fddf252ad1be2c89b69c2b068fc378daa952ba7f163c4a11628f55a4df523b3ef60405160405180910390a45050565b600081519050919050565b600082825260208201905092915050565b60005b83811015612384578082015181840152602081019050612369565b60008484015250505050565b6000601f19601f8301169050919050565b60006123ac8261234a565b6123b68185612355565b93506123c6818560208601612366565b6123cf81612390565b840191505092915050565b600060208201905081810360008301526123f481846123a1565b905092915050565b600080fd5b600080fd5b6000819050919050565b61241981612406565b811461242457600080fd5b50565b60008135905061243681612410565b92915050565b600060208284031215612452576124516123fc565b5b600061246084828501612427565b91505092915050565b600073ffffffffffffffffffffffffffffffffffffffff82169050919050565b600061249482612469565b9050919050565b6124a481612489565b82525050565b60006020820190506124bf600083018461249b565b92915050565b6124ce81612489565b81146124d957600080fd5b50565b6000813590506124eb816124c5565b92915050565b60008060408385031215612508576125076123fc565b5b6000612516858286016124dc565b925050602061252785828601612427565b9150509250929050565b60008115159050919050565b61254681612531565b82525050565b6000602082019050612561600083018461253d565b92915050565b61257081612406565b82525050565b600060208201905061258b6000830184612567565b92915050565b6000806000606084860312156125aa576125a96123fc565b5b60006125b8868287016124dc565b93505060206125c9868287016124dc565b92505060406125da86828701612427565b9150509250925092565b600060ff82169050919050565b6125fa816125e4565b82525050565b600060208201905061261560008301846125f1565b92915050565b61262481612531565b811461262f57600080fd5b50565b6000813590506126418161261b565b92915050565b6000806040838503121561265e5761265d6123fc565b5b600061266c858286016124dc565b925050602061267d85828601612632565b9150509250929050565b60006020828403121561269d5761269c6123fc565b5b60006126ab848285016124dc565b91505092915050565b600080fd5b600080fd5b600080fd5b60008083601f8401126126d9576126d86126b4565b5b8235905067ffffffffffffffff8111156126f6576126f56126b9565b5b602083019150836001820283011115612712576127116126be565b5b9250929050565b600080600080600060808688031215612735576127346123fc565b5b6000612743888289016124dc565b9550506020612754888289016124dc565b945050604061276588828901612427565b935050606086013567ffffffffffffffff81111561278657612785612401565b5b612792888289016126c3565b92509250509295509295909350565b600080604083850312156127b8576127b76123fc565b5b60006127c6858286016124dc565b92505060206127d7858286016124dc565b9150509250929050565b7f4e487b7100000000000000000000000000000000000000000000000000000000600052602260045260246000fd5b6000600282049050600182168061282857607f821691505b60208210810361283b5761283a6127e1565b5b50919050565b7f4e487b7100000000000000000000000000000000000000000000000000000000600052601160045260246000fd5b600061287b82612406565b915061288683612406565b925082820390508181111561289e5761289d612841565b5b92915050565b7f4e487b7100000000000000000000000000000000000000000000000000000000600052603260045260246000fd5b7f4e487b7100000000000000000000000000000000000000000000000000000000600052603160045260246000fd5b600082825260208201905092915050565b50565b6000612923600083612902565b915061292e82612913565b600082019050919050565b600060808201905061294e600083018661249b565b61295b602083018561249b565b6129686040830184612567565b818103606083015261297981612916565b9050949350505050565b60007fffffffff0000000000000000000000000000000000000000000000000000000082169050919050565b6129b881612983565b81146129c357600080fd5b50565b6000815190506129d5816129af565b92915050565b6000602082840312156129f1576129f06123fc565b5b60006129ff848285016129c6565b91505092915050565b82818337600083830152505050565b6000612a238385612902565b9350612a30838584612a08565b612a3983612390565b840190509392505050565b6000608082019050612a59600083018861249b565b612a66602083018761249b565b612a736040830186612567565b8181036060830152612a86818486612a17565b90509695505050505050565b60008160011c9050919050565b6000808291508390505b6001851115612ae957808604811115612ac557612ac4612841565b5b6001851615612ad45780820291505b8081029050612ae285612a92565b9450612aa9565b94509492505050565b600082612b025760019050612bbe565b81612b105760009050612bbe565b8160018114612b265760028114612b3057612b5f565b6001915050612bbe565b60ff841115612b4257612b41612841565b5b8360020a915084821115612b5957612b58612841565b5b50612bbe565b5060208310610133831016604e8410600b8410161715612b945782820a905083811115612b8f57612b8e612841565b5b612bbe565b612ba18484846001612a9f565b92509050818404811115612bb857612bb7612841565b5b81810290505b9392505050565b6000612bd082612406565b9150612bdb836125e4565b9250612c087fffffffffffffffffffffffffffffffffffffffffffffffffffffffffffffffff8484612af2565b905092915050565b7f4e487b7100000000000000000000000000000000000000000000000000000000600052601260045260246000fd5b6000612c4a82612406565b9150612c5583612406565b925082612c6557612c64612c10565b5b828204905092915050565b6000612c7b82612406565b91507fffffffffffffffffffffffffffffffffffffffffffffffffffffffffffffffff8203612cad57612cac612841565b5b60018201905091905056fea26469706673582212208b377eb64c1ebc08f47d8000e1e00e00b1f6858a3c4bb56caf17768ecbdd916864736f6c63430008140033a264697066735822122096ae31cdff83c252ce4e2289b8210786b1d6243d7c0dfe7bc5eecaffdb44528d64736f6c63430008140033",
  "linkReferences": {},
  "deployedLinkReferences": {}
}